:100000000C9434000C9449000C9449000C94490061
:100010000C9449000C9449000C9449000C9449003C
:100020000C9449000C9449000C9449000C9449002C
:100030000C9449000C9449000C9449000C9449001C
:100040000C9449000C9449000C9449000C9449000C
:100050000C9449000C9449000C9449000C944900FC
:100060000C9449000C94490011241FBECFEFD8E036
:10007000DEBFCDBF12E0A0E0B1E0E8E4F4E002C0F2
:1000800005900D92AA3DB107D9F70E9492010C94F8
:1000900022020C94000081E085B9FFCF1092B900D4
:1000A0008CE08093B80008959091BC009923E4F708
:1000B0002091B900287F30E090E02817390711F02F
:1000C0000E944B0008958093BB0084E88093BC009D
:1000D000862F0E94540008951F93CF93DF93182F0B
:1000E000CCEBD0E084EA888380E10E94540060E495
:1000F000812F0E9463008881888388E50E945400D4
:100100008091BB00DF91CF911F910895CF93DF9332
:10011000C82FD62F84EA8093BC0088E00E94540048
:100120006D2F8C2F0E946300DF91CF91089584E999
:100130008093BC000895CF93C82F68E188E70E94A0
:10014000860068E280E00E94630068E28C2F0E94D3
:1001500063000E949700CF910895CF93DF93D82F2B
:10016000C62F68E188E70E94860068E280E00E946E
:10017000630068E28D2F0E94630068E28C2F0E946A
:1001800063000E949700DF91CF910895CF93C82F0D
:1001900068E188E70E94860068E280E40E946300CC
:1001A00068E28C2F0E9463000E949700CF9108950F
:1001B000806B0E949B0008951F93CF93DF93D82FED
:1001C00010E00CC0812F0E94D800C0E004C08D2F29
:1001D0000E94C600CF5FC438D0F31F5F183090F381
:1001E000DF91CF911F910895CF93DF93D82FC0E077
:1001F00004C080E00E94C600CF5FCD17D0F3DF912E
:10020000CF910895CF93C82F8F7080610E949B007B
:100210008C2F82958F700E949B00CF9108950F9331
:100220001F93CF938C01C0E009C0F801EC0FF11DC2
:10023000E050FF4F80810E94C600CF5FC830A8F316
:10024000CF911F910F9108950F931F93CF93DF9339
:10025000082F162FEA010E94D80082E0810F0E9429
:10026000020110E025C0FE01E80FF91F808190E037
:100270009C01215231092A33310568F48152904E94
:1002800042E0602F880F991F880F991F880F991FD0
:100290000E940F010CC0809721F482E00E94F400BC
:1002A00006C042E0602F80ED91E00E940F011F5FC9
:1002B000812F90E0FE0101900020E9F73197EC1BBF
:1002C000FD0B31978E179F0770F2DF91CF911F9131
:1002D0000F910895CF93DF93D82FC62F68E186EA58
:1002E0000E94860068E28D2F0E94630068E28C2FD6
:1002F0000E9463000E949700DF91CF910895CF93F1
:10030000C82F68E186EA0E94860068E28C2F0E946E
:10031000630087EA0E946C00C82F0E9497008C2F10
:10032000CF910895CF93DF9300D000D0CDB7DEB743
:100330008FEF84B915B80E944E008EEA0E949B0090
:1003400060E885ED0E94AD0060E083ED0E94AD00A5
:1003500080E40E949B006BE88DEA0E94AD0083E37D
:100360000E949B0088EC0E949B0081EA0E949B00F7
:1003700062E18AED0E94AD0061EF89ED0E94AD005F
:1003800060E48BED0E94AD006FEF81E80E94AD004C
:1003900084EA0E949B0086EA0E949B0080E00E9403
:1003A000DC008FEA0E949B0048ED52E060E080E0B4
:1003B0000E94240160E081E30E946A016AE08CE20D
:1003C0000E946A0168E08DE20E946A0180E00E945A
:1003D0007F0182E30E947F0130E020C0E2E0F0E094
:1003E000E31BF1092DEC829F212D1124922F96956C
:1003F00096959695990F492F440F440F940F891B9A
:10040000982F41E050E04C0F5D1FE40FF51F905D09
:100410009083822F8695869586953F5F3330F0F2E4
:100420001D82AE014F5F5F4F60E080E00E942401BB
:100430005FEF89E698E1515080409040E1F700C0BD
:080440000000C7CFF894FFCFC4
:10044800000000DFDF0000000003070003070000D2
:1004580066FFFF6666FFFF66C6CFC9FFFF93F363BB
:10046800C7E577381CEEA7E360F6DF89D1E1728033
:10047800000000030700000000007EC381000000A8
:1004880000000081C37E0000995A3CFFFF3C5A9946
:100498000018187E7E181800000000C00000000038
:1004A8000018181818181800000000C0C000000034
:1004B800C0E070381C0E07037EFFE3D3CBC7FF7E76
:1004C800000406FFFF000000FBFBDBDBDBDBDFCE0D
:1004D800C3DBDBDBDBDBFF7E0F1F18181818FFFF01
:1004E800CFDFDBDBDBDBFB7B7EFFDBDBDBDBFB731D
:1004F80003030303F3FF1F0776FFDBDBDBDBFF767A
:100508001EDFDBDBDBFB7F3E0000006666000000D1
:10051800000000E66600000018183C3C6666C3C38D
:100528006666666666666666C3C366663C3C181899
:10053800000607D1DB0F06003C4299A5A5BDE2BC29
:10054800FCFE37333337FEFCFFFFDBDBDBDBFF660C
:100558003C7EE7C3C3C3E766FFFFC3C3C3E7FF7EB1
:10056800FFFFDBDBDBDBC3C3FFFF1B1B1B1B030323
:100578003C7EE7C3C3D3F7F6FFFF18181818FFFF30
:10058800000000FFFF00000070F0C0C0C0C0FF7F87
:10059800FFFF183C7EE7C3C3FFFFC0C0C0C0C0C098
:1005A800FFFF0E1C1C0EFFFFFFFF0E1C3870FFFF25
:1005B8007EFFC3C3C3C3FF7EFFFF333333331F0E36
:1005C8007EFFC3D3F363FFDEFFFF333373F3DF8EA6
:1005D800CEDFDBDBDBDBFB73030303FFFF0303037C
:1005E8007FFFC0C0C0C0FF7F0F3F70C0C0703F0F0B
:1005F800FFFF70383870FFFFC3E77E3C3C7EE7C3DF
:1006080003070EFCFC0E0703C3E3F3FBDFCFC7C3EE
:0A061800FFFF81818181FFFF3100A7
:00000001FF
